:100000000C9434000C9479010C9479010C947901CE
:100010000C9479010C9479010C9479010C94790178
:100020000C9479010C9479010C9479010C94790168
:100030000C9479010C9479010C9479010C94790158
:100040000C9479010C9479010C9479010C94790148
:100050000C9479010C9479010C9479010C94790138
:100060000C9479010C94790111241FBECFEFD8E0D4
:10007000DEBFCDBF0E9462010C945701F894FFCF00
:100080000A2D2D2D204D656E75206465204669670B
:1000900075726173202D2D2D0A00312E2044696266
:1000A000756A61722043697263756C6F0A00322E43
:1000B00020446962756A617220547269616E677565
:1000C0006C6F0A00332E20446962756A61722043A6
:1000D00072757A0A00342E20446962756A61722052
:1000E000506572726F0A00352E20446962756A612C
:1000F00072204D616E7A616E610A0053656C6563B2
:1001000063696F6E6520756E61206F7063696F6ED5
:100110002028312D35293A20000A53656C65636328
:10012000696F6E61646F3A2043697263756C6F0A20
:10013000000A53656C656363696F6E61646F3A2092
:10014000547269616E67756C6F0A000A53656C655D
:100150006363696F6E61646F3A204372757A0A0057
:100160000A53656C656363696F6E61646F3A205012
:100170006572726F0A000A53656C656363696F6E1E
:1001800061646F3A204D616E7A616E610A000A4FB8
:100190007063696F6E206E6F2076616C6964612E8A
:1001A00020496E74656E7465206465206E75657691
:0401B0006F2E0A00A4
:1001B400CF930E947201C82F0E946B01C333B9F020
:1001C40028F4C13341F0C23361F023C0C433A9F031
:1001D400C533C9F01EC069E171E080E00E943601B8
:1001E4001DC061E371E080E00E94360117C06BE43A
:1001F40071E080E00E94360111C060E671E080E0A9
:100204000E9436010BC066E771E080E00E9436016F
:1002140005C06EE871E080E00E943601CF91089538
:1002240060E870E080E00E9436016AE970E080E0F6
:100234000E9436016EEA70E080E00E94360164ECB0
:1002440070E080E00E94360165ED70E080E00E947D
:10025400360167EE70E080E00E9436016BEF70E0DB
:0802640080E00E9436010895BC
:10026C00CF92DF92EF926B01E82E06C09FEFC91A76
:10027C00D90AE90A0E946B01F6018491E7FC80819E
:0C028C008111F4CFEF90DF90CF90089527
:100298009093C5008093C40088E18093C10086E0F4
:0602A8008093C2000895DE
:1002AE00EC010E947E010E947D01CE010E947F0121
:0602BE00CE010E947B014D
:1002C40087E690E00E944C010E9412010E94DA002D
:0202D400FBCF5E
:0E02D6009091C00095FFFCCF8093C600089564
:0E02E4008091C0008823E4F78091C600089541
:0402F2000C94000068
:0402F6000E943E0024
:0202FA00089565
:0202FC00089563
:0202FE00089561
:00000001FF
