:020000020000FC
:0200000004C03A
:020004007FC0BB
:100008007FC078940FEF04B907B9002700E30AB955
:100018005A9A5B9A0FEF0DBF002708E00EBF23E046
:100028002DBB3FE03093690081E0C0E0D1E090E073
:100038000E949100903009F4FDCFC0E0488148B992
:100048005D9A37D0C1E0488148B95D98C0E031D0A9
:10005800C2E0488148B95D9AC0E02BD0C3E048812E
:1000680048B95D9AC0E025D0C4E0488148B95D9898
:10007800C0E01FD0C5E0488148B95D9AC0E019D0FA
:10008800C6E0488148B95D9AC0E013D0C7E048810E
:1000980048B95D9AC0E00DD0C8E0488148B95D9A7A
:1000A800C0E007D0C9E0488148B95D9AC0E001D0F6
:1000B800C1CF5C98C03009F45C9AC13009F45C98EF
:1000C800C23009F45C9AC33009F45C9AC43009F46C
:1000D8005C98C53009F45C9AC63009F45C9AC7305C
:1000E80009F45C9AC83009F45C9AC9305C9A488172
:1000F80045B909D0C80FC930E1F608959395189508
:100108009A950C9405003FEF21E014E13A95F1F738
:100118002A95E1F71A95D1F70895C0E0D1E05EE796
:10012800599350E359935DE6599359E7599353E32B
:1001380059935BE559935FE5599350E759935FE706
:08014800599353E75993089500
:00000001FF
