:100000000C9437000C94B0000C94B0000C94B00029
:100010000C94B0000C94B0000C9461000C94B000EF
:100020000C94B0000C94B0000C94B0000C94B00090
:100030000C94B0000C94B0000C94B0000C94B00080
:100040000C94B0000C94B0000C94B0000C94B00070
:100050000C94B0000C94B0000C94B0000C94B00060
:100060000C94B0000C94B000010001028000112437
:100070001FBECFEFD8E0DEBFCDBFE8E6F0E040E046
:1000800017C0B591A59135912591059107FD0CC03B
:1000900095918591EF01F92FE82F05900D92A21708
:1000A000B307D9F7FE0104C01D92A217B307E1F709
:1000B000ED36F40731F70E9487000C94A500F89400
:0200C000FFCF70
:1000C2001F920F920FB60F9211248F939F938091DC
:1000D200000190910101019690930101809300012A
:1000E2000F976CF010920101109200018BB18823DE
:1000F20019F08BB11BB803C08BB18FEF8BB99F91F5
:0C0102008F910F900FBE0F901F9018956A
:10010E008AB1CFEFCAB90E949A008BB1CBB983B72F
:10011E00817F866083BF83B7816083BF889583B7F5
:06012E008E7F83BFF4CFB9
:10013400F894A895E0E6F0E080818861808387E404
:0601440080837894089509
:10014A00EC010E94B5000E94B400CE010E94B600E4
:06015A00CE010E94B2007C
:040160000C940000FB
:040164000E945F0096
:020168000895F8
:02016A000895F6
:02016C000895F4
:00000001FF
