:020000020000FC
:0200000004C03A
:0200040017C023
:100008001EC0789450E00FEF04B900EF0AB95A9A6D
:100018005B9A18E00DBF1EBF23E02DBB3FE0309375
:1000280069002B9A10D02B980ED0FBCF503009F4D2
:1000380004D05A95000054D0089550E0189553956F
:1000480000004ED018953FEF2FEF15E53A95F1F7E0
:100058002A95E1F71A95D1F7089538E247EC4A95C1
:10006800F1F73A95E1F708950CEF0BB9289A299A18
:100078002A9808950CE60BB9289829982A98089583
:100088000CEB0BB9289A29982A9A08950CEF0BB90A
:10009800289829982A9A08950CE60BB92898299A3D
:1000A8002A9A08950CED0BB92898299A2A9A089546
:1000B8000CED0BB9289A299A2A9A08950CE70BB9DE
:1000C800289829982A9808950CEF0BB9289A299A04
:1000D8002A9A08950CE70BB92898299A2A9A08951C
:1000E800503009F4C1DF513009F4C4DF523009F44B
:1000F800C7DF533009F4CADF543009F4CDDF553077
:1001080009F4D0DF563009F4D3DF573009F4D6DFCD
:0E011800583009F4D9DF593009F4DCDF0895BE
:00000001FF
