:020000020000FC
:0200000004C03A
:0200040017C023
:1000080018C0789450E00FEF04B900EF0AB95A9A73
:100018005B9A18E00DBF1EBF23E02DBB3FE0309375
:1000280069002B9A09D02B9807D0FBCF5A954AD054
:100038001895539547D018953FEF2FEF15E53A954A
:10004800F1F72A95E1F71A95D1F708950CEF0BB956
:10005800289A299A2A9808950CE60BB9289829987D
:100068002A9808950CEB0BB9289A29982A9A08958A
:100078000CEF0BB9289829982A9A08950CE60BB921
:100088002898299A2A9A08950CED0BB92898299A44
:100098002A9A08950CED0BB9289A299A2A9A089554
:1000A8000CE70BB9289829982A9808950CEF0BB9F2
:1000B800289A299A2A9A08950CE70BB92898299A18
:1000C8002A9A0895503009F4C1DF513009F4C4DF89
:1000D800523009F4C7DF533009F4CADF543009F449
:1000E800CDDF553009F4D0DF563009F4D3DF57306F
:1000F80009F4D6DF583009F4D9DF593009F4DCDFC8
:02010800089558
:00000001FF
