:100000000C9434000C947F060C947F060C947F06AD
:100010000C947F060C947F060C947F060C947F064C
:100020000C947F060C947F060C947F060C947F063C
:100030000C947F060C947F060C947F060C947F062C
:100040000C947F060C947F060C947F060C947F061C
:100050000C947F060C947F060C947F060C947F060C
:100060000C947F060C947F0611241FBECFEFD8E0BE
:10007000DEBFCDBF0E9426060C943106F894FFCF58
:100080000A2D2D2D204D656E75206465204669670B
:1000900075726173202D2D2D0A00312E2044696266
:1000A000756A61722043697263756C6F0A00322E43
:1000B00020446962756A617220547269616E677565
:1000C0006C6F0A00332E20446962756A61722043A6
:1000D00072757A0A00342E20446962756A61722052
:1000E000506572726F0A00352E20446962756A612C
:1000F00072204D616E7A616E610A0053656C6563B2
:1001000063696F6E6520756E61206F7063696F6ED5
:100110002028312D35293A20000A53656C65636328
:10012000696F6E61646F3A2043697263756C6F0A20
:10013000000A53656C656363696F6E61646F3A2092
:10014000547269616E67756C6F0A000A53656C655D
:100150006363696F6E61646F3A204372757A0A0057
:100160000A53656C656363696F6E61646F3A205012
:100170006572726F0A000A53656C656363696F6E1E
:1001800061646F3A204D616E7A616E610A000A4FB8
:100190007063696F6E206E6F2076616C6964612E8A
:1001A00020496E74656E7465206465206E75657691
:0401B0006F2E0A00A4
:1001B400CF930E946706C82F0E946006C33309F4D8
:1001C400CCC030F4C13359F0C23309F47DC001C34B
:1001D400C43309F422C1C53309F45BC2FAC269E12C
:1001E40071E080E00E94F60588E59BE10E943C06F0
:1001F40088EE93E00E944E060E946E062FEF87EA77
:1002040091E6215080409040E1F700C0000087EC67
:1002140091E00E94450684E090E00E940A0585E092
:1002240090E00E946A0484E090E00E94AA0587ECB2
:1002340091E00E944E0684E090E00E94820585E0F1
:1002440090E00E94420484E090E00E94E20487EC83
:1002540091E00E943C0684E090E00E94920485E0D4
:1002640090E00E94F20384E090E00E94320587EC63
:1002740091E00E94570684E090E00E945A0585E0D0
:1002840090E00E941A0484E090E00E94BA042FEFE8
:1002940087EA91E6215080409040E1F700C00000D9
:1002A4000E9475062FEF87EA91E621508040904026
:1002B400E1F700C0000089EE93E00E94570689E54B
:1002C4009BE10E9445068AC261E371E080E00E94DE
:1002D400F60580E29EE40E943C0688EE93E00E94CC
:1002E4004E068EE190E00E9442040E946E062FEFBB
:1002F40081E19AE7215080409040E1F700C000007E
:100304008EE190E00E941A048EE190E00E946A045B
:1003140081EC91E10E943C062FEF81E19AE72150A4
:1003240080409040E1F700C000000E9475062FEF66
:1003340081E19AE7215080409040E1F700C000003D
:100344008EE190E00E941A0488EE93E00E94570622
:1003540080E29EE40E94450641C26BE471E080E0C5
:100364000E94F60588EF9AE20E943C0688EE93E02C
:100374000E944E060E946E062FEF87EA91E62150F6
:1003840080409040E1F700C000008EE190E00E94C0
:100394006A042FEF83ED90E3215080409040E1F711
:1003A40000C000000E9475062FEF83ED90E32150FA
:1003B40080409040E1F700C0000084E398E00E9490
:1003C40057060E946E062FEF87EA91E6215080407F
:1003D4009040E1F700C000008EE190E00E944204EA
:1003E4002FEF83ED90E3215080409040E1F700C06F
:1003F40000000E9475062FEF83ED90E321508040AA
:100404009040E1F700C0000088E893E10E9457069D
:1004140088E99AE30E944506E1C160E671E080E064
:100424000E94F60580E197E20E943C0688E893E189
:100434000E944E060E946E062FEF87EA91E6215035
:1004440080409040E1F700C000008CE691E00E94FB
:10045400450684E696E00E94570689E190E00E94F2
:100464006A048EE69CE00E944E0684E190E00E94BD
:10047400420484E595E00E943C0684E190E00E94F9
:10048400F2038EE69CE00E94570689E190E00E9408
:100494001A0484E696E00E944E068CE691E00E94DF
:1004A40045062FEF87EA91E6215080409040E1F71E
:1004B40000C000000E9475062FEF87EA91E62150E4
:1004C40080409040E1F700C000008DE893E00E9476
:1004D4004E0682E393E00E943C060E946E062FEFD4
:1004E40087EA91E6215080409040E1F700C0000087
:1004F40087EC91E00E944E0681E191E00E943C0667
:1005040087EC91E00E94570681E191E00E94450644
:100514002FEF87EA91E6215080409040E1F700C038
:1005240000000E9475062FEF87EA91E62150804073
:100534009040E1F700C0000084E696E00E94450682
:100544000E946E062FEF87EA91E62150804090408A
:10055400E1F700C0000087EC91E00E944E0681E1C3
:1005640091E00E94450687EC91E00E94570681E1E4
:1005740091E00E943C062FEF87EA91E621508040EB
:100584009040E1F700C000000E9475062FEF87EA53
:1005940091E6215080409040E1F700C0000082E3E2
:1005A40093E00E943C0684E595E00E944E060E947A
:1005B4006E062FEF87EA91E6215080409040E1F7E4
:1005C40000C0000087EC91E00E94450681E191E0C3
:1005D4000E944E068DE893E00E943C0681E191E082
:1005E4000E94570687EC91E00E9445062FEF87EAA8
:1005F40091E6215080409040E1F700C000000E9445
:1006040075062FEF87EA91E6215080409040E1F78C
:1006140000C0000081E191E00E944E060E946E0637
:100624002FEF87EA91E6215080409040E1F700C027
:10063400000087EC91E00E944E068CE792E00E9455
:10064400450689EF94E00E943C0687EC91E00E9405
:1006540045068CE792E00E944E068CE691E00E94EB
:1006640045068CE792E00E9457060E9475062FEF1C
:1006740087EA91E6215080409040E1F700C00000F5
:1006840088E99AE30E94570688E99AE30E9445069E
:10069400A5C066E771E080E00E94F60580E596E477
:1006A4000E943C0689E69CE10E944E060E946E066A
:1006B4002FEF87EA91E6215080409040E1F700C097
:1006C400000085E090E00E946A0487EA9AE00E94B4
:1006D4004E0684E190E00E9442048AE197E00E9481
:1006E4003C0684E190E00E94F20387EA9AE00E94CB
:1006F400570685E090E00E941A048CE792E00E947D
:10070400450685E090E00E946A048DE893E00E942B
:1007140045068AE197E00E9457060E9475062FEF6E
:1007240087EA91E6215080409040E1F700C0000044
:100734008DE893E00E944E060E946E062FEF87EA32
:1007440091E6215080409040E1F700C000008AE02B
:1007540090E00E941A040E9475062FEF87EA91E642
:10076400215080409040E1F700C000008AE090E012
:100774000E9442048DE893E00E944E060E946E0699
:100784002FEF87EA91E6215080409040E1F700C0C6
:1007940000008DE893E00E94450685E090E00E9409
:1007A4001A048CE792E00E9445060E9475062FEF1A
:1007B40087EA91E6215080409040E1F700C00000B4
:1007C4008AE69CE10E94570681E596E40E9445066C
:1007D40005C06EE871E080E00E94F605CF910895AF
:1007E400AC0120E030E020C09BB190649BB96FEF76
:1007F4008AE693E0615080409040E1F700C0000039
:100804009BB19F7B9BB99BB190629BB96FEF8AE6CA
:1008140093E0615080409040E1F700C000009BB13C
:100824009F7D9BB92F5F3F4F24173507E8F208954A
:10083400AC0120E030E020C09BB190689BB96FEF21
:100844008AE693E0615080409040E1F700C00000E8
:100854009BB19F779BB99BB190629BB96FEF8AE67E
:1008640093E0615080409040E1F700C000009BB1EC
:100874009F7D9BB92F5F3F4F24173507E8F20895FA
:10088400AC0120E030E020C09BB190649BB96FEFD5
:100894008AE693E0615080409040E1F700C0000098
:1008A4009BB19F7B9BB99BB190619BB96FEF8AE62B
:1008B40093E0615080409040E1F700C000009BB19C
:1008C4009F7E9BB92F5F3F4F24173507E8F20895A9
:1008D400AC0120E030E020C09BB190689BB96FEF81
:1008E4008AE693E0615080409040E1F700C0000048
:1008F4009BB19F779BB99BB190619BB96FEF8AE6DF
:1009040093E0615080409040E1F700C000009BB14B
:100914009F7E9BB92F5F3F4F24173507E8F2089558
:10092400AC0120E030E020C09BB190649BB96FEF34
:1009340081EE94E0615080409040E1F700C00000F7
:100944009BB19F7B9BB99BB190629BB96FEF80E792
:1009540092E0615080409040E1F700C000009BB1FC
:100964009F7D9BB92F5F3F4F24173507E8F2089509
:10097400AC0120E030E020C09BB190689BB96FEFE0
:1009840081EE94E0615080409040E1F700C00000A7
:100994009BB19F779BB99BB190629BB96FEF80E746
:1009A40092E0615080409040E1F700C000009BB1AC
:1009B4009F7D9BB92F5F3F4F24173507E8F20895B9
:1009C400AC0120E030E020C09BB190649BB96FEF94
:1009D40081EE94E0615080409040E1F700C0000057
:1009E4009BB19F7B9BB99BB190619BB96FEF80E7F3
:1009F40092E0615080409040E1F700C000009BB15C
:100A04009F7E9BB92F5F3F4F24173507E8F2089567
:100A1400AC0120E030E020C09BB190689BB96FEF3F
:100A240081EE94E0615080409040E1F700C0000006
:100A34009BB19F779BB99BB190619BB96FEF80E7A6
:100A440092E0615080409040E1F700C000009BB10B
:100A54009F7E9BB92F5F3F4F24173507E8F2089517
:100A6400AC0120E030E020C09BB190649BB96FEFF3
:100A740080E792E0615080409040E1F700C00000C0
:100A84009BB19F7B9BB99BB190629BB96FEF81EE49
:100A940094E0615080409040E1F700C000009BB1B9
:100AA4009F7D9BB92F5F3F4F24173507E8F20895C8
:100AB400AC0120E030E020C09BB190689BB96FEF9F
:100AC40080E792E0615080409040E1F700C0000070
:100AD4009BB19F779BB99BB190629BB96FEF81EEFD
:100AE40094E0615080409040E1F700C000009BB169
:100AF4009F7D9BB92F5F3F4F24173507E8F2089578
:100B0400AC0120E030E020C09BB190649BB96FEF52
:100B140080E792E0615080409040E1F700C000001F
:100B24009BB19F7B9BB99BB190619BB96FEF81EEA9
:100B340094E0615080409040E1F700C000009BB118
:100B44009F7E9BB92F5F3F4F24173507E8F2089526
:100B5400AC0120E030E020C09BB190689BB96FEFFE
:100B640080E792E0615080409040E1F700C00000CF
:100B74009BB19F779BB99BB190619BB96FEF81EE5D
:100B840094E0615080409040E1F700C000009BB1C8
:100B94009F7E9BB92F5F3F4F24173507E8F20895D6
:100BA40060E870E080E00E94F6056AE970E080E0A9
:100BB4000E94F6056EEA70E080E00E94F60564EC9F
:100BC40070E080E00E94F60565ED70E080E00E9430
:100BD400F60567EE70E080E00E94F6056BEF70E0CA
:080BE40080E00E94F60508956F
:100BEC00CF92DF92EF926B01E82E06C09FEFC91AED
:100BFC00D90AE90A0E946006F6018491E7FC80811B
:0C0C0C008111F4CFEF90DF90CF9008959D
:100C180020E030E008C0EFE9FFE03197F1F700C0CD
:0E0C280000002F5F3F4F28173907A8F30895EB
:100C36009093C5008093C40088E18093C10086E04C
:060C46008093C200089536
:100C4C000E947C0687E690E00E941B060E94D2055B
:060C5C000E94DA00FBCF4C
:100C6200EC010E9484060E948306CE010E94850642
:060C7200CE010E94810684
:100C78002BB120642BB90E940C068BB18F7B8BB9EA
:020C88000895CD
:100C8A002BB120682BB90E940C068BB18F778BB9D8
:020C9A000895BB
:100C9C002BB120612BB90E940C068BB18F7E8BB9C6
:020CAC000895A9
:100CAE002BB120622BB90E940C068BB18F7D8BB9B4
:020CBE00089597
:0E0CC0009091C00095FFFCCF8093C600089570
:0E0CCE008091C0008823E4F78091C60008954D
:0E0CDC008BB184608BB98BB1877F8BB9089583
:0E0CEA008BB188608BB98BB18B7F8BB908956D
:060CF8008FEF8AB9089598
:040CFE000C94000052
:040D02000E943E000D
:020D060008954E
:020D080008954C
:020D0A0008954A
:00000001FF
