:100000000C9434000C94B4000C94B4000C94B40020
:100010000C94B4000C94B4000C94B4000C94B40090
:100020000C94B4000C94B4000C94B4000C94B40080
:100030000C94B4000C94B4000C94B4000C94B40070
:100040000C94B4000C94B4000C94B4000C94B40060
:100050000C94B4000C94B4000C94B4000C94B40050
:100060000C94B4000C94B40011241FBECFEFD8E060
:10007000DEBFCDBF0E9440000C94A200F894FFCFD9
:100080000E9496008AB188638AB984B1816084B97C
:100090000E94AD00863469F48BB188608BB98BB156
:1000A0008F7D8BB98BB180618BB985B18E7F85B91E
:1000B000EFCF823469F48BB180628BB98BB1877FCB
:1000C0008BB985B1816085B98BB18F7E8BB9E0CF5B
:1000D000823569F48BB18F7D8BB98BB1877F8BB9FA
:1000E0008BB180618BB985B18E7F85B9D1CF8C34CE
:1000F00069F48BB18F7D8BB98BB188608BB98BB173
:100100008F7E8BB985B18E7F85B9C2CF833509F0DB
:10011000BFCF8BB18F7D8BB98BB1877F8BB98BB103
:0C0120008F7E8BB985B18E7F85B9B2CF80
:10012C001092C50087E68093C40088E18093C100DB
:08013C0086E08093C2000895E3
:10014400EC010E94B9000E94B800CE010E94BA00DE
:06015400CE010E94B6007E
:0E015A008091C0008823E4F78091C6000895CC
:040168000C940000F3
:04016C000E943E00AF
:020170000895F0
:020172000895EE
:020174000895EC
:00000001FF
