:100000000C9434000C9437080C9437080C9437087F
:100010000C9437080C9437080C9437080C94370864
:100020000C9437080C9437080C9437080C94370854
:100030000C9437080C9437080C9437080C94370844
:100040000C9437080C9437080C9437080C94370834
:100050000C9437080C9437080C9437080C94370824
:100060000C9437080C94370811241FBECFEFD8E04A
:10007000DEBFCDBF0E94CA070C94F907F894FFCFEA
:1000800060E070E088E091E40E94B50660E070E016
:1000900088E091E40E9410060E9428082FEF80E774
:1000A00092E0215080409040E1F700C0000063ECF6
:1000B00075EF88E29FE30E94B50662E578EB8EE378
:1000C00090E40E94BB0560E070E080EA90E40E944A
:1000D0009A0463EC75EF88EB90E40E94100660E0F0
:1000E00070E080E890E40E94FE0462E578EB8EE127
:1000F00090E40E94FE0660E070E080E890E40E94D8
:10010000360463EC75EF88EB90E40E94BB0560E079
:1001100070E080EA90E40E94D20362E578EB8EE31F
:1001200090E40E94100663EC75EF88E29FE30E9462
:10013000B5062FEF80E792E0215080409040E1F734
:1001400000C000000E9424082FEF80E792E02150B9
:1001500080409040E1F700C0000061EE7AE784ED56
:100160009FE30E94100664EA70E78DEB9FE30E9414
:10017000FE060E9428082FEF80E792E02150804081
:100180009040E1F700C0000065E87BEE81E59FE369
:100190000E94100660E070E080E09FE30E94FE068F
:1001A00065E87BEE81E59FE30E94BB0560E070E0BF
:1001B00080E09FE30E94B5062FEF80E792E0215098
:1001C00080409040E1F700C000000E9424082FEF1B
:1001D00080E792E0215080409040E1F700C00000AD
:1001E00062E578EB8EE390E40E94B5060E94280851
:1001F0002FEF80E792E0215080409040E1F700C06F
:10020000000065E87BEE81E59FE30E94100660E058
:1002100070E080E09FE30E94B50665E87BEE81E533
:100220009FE30E94BB0560E070E080E09FE30E94D6
:10023000FE062FEF80E792E0215080409040E1F7EA
:1002400000C000000E9424082FEF80E792E02150B8
:1002500080409040E1F700C0000064EA70E78DEB59
:100260009FE30E94FE0662E578EB8EE190E40E9437
:1002700010060E9428082FEF80E792E0215080406E
:100280009040E1F700C0000065E87BEE81E59FE368
:100290000E94B50660E070E080E09FE30E941006D7
:1002A00061EE7AE784ED9FE30E94FE0660E070E075
:1002B00080E09FE30E94BB0565E87BEE81E59FE35C
:1002C0000E94B5062FEF80E792E0215080409040D9
:1002D000E1F700C000000E9424082FEF80E792E0C1
:1002E000215080409040E1F700C0000060E070E0E5
:1002F00080E09FE30E9410060E9428082FEF80E70D
:1003000092E0215080409040E1F700C0000065E895
:100310007BEE81E59FE30E94100661EE7AE784E9B7
:100320009FE30E94B50661EE7AE784E190E40E94C3
:10033000FE0665E87BEE81E59FE30E94B50661EE6F
:100340007AE784E99FE30E94100663EC75EF88E288
:100350009FE30E94B50661EE7AE784E99FE30E947D
:10036000BB050E9424082FEF80E792E021508040D7
:100370009040E1F700C0000069E27CE58FE591E480
:100380000E94BB0564EA70E78DE091E40E94FE06DE
:020390000895CE
:1003920060E070E084EC91E40E94B50660E070E0F9
:1003A20088E091E40E9410060E9428082FEF80E75F
:1003B20092E0215080409040E1F700C0000060E0F0
:1003C20070E080E89FE30E949A0462E578EB8EE990
:1003D20090E40E94100660E070E080E890E40E94E1
:1003E200FE0463E373E383E590E40E94FE0660E0AB
:1003F20070E080E890E40E94360462E578EB8EE9D2
:1004020090E40E94BB0560E070E080E89FE30E94F8
:10041200D20361EE7AE784E99FE30E94B50660E0C9
:1004220070E080E89FE30E949A0461EE7AE784ED2F
:100432009FE30E94B50663E373E383E590E40E94C1
:10044200BB050E9424082FEF80E792E021508040F4
:100452009040E1F700C0000061EE7AE784ED9FE38F
:100462000E9410060E9428082FEF80E792E0215098
:1004720080409040E1F700C0000060E070E080E062
:1004820090E40E94D2030E9424082FEF80E792E0BA
:10049200215080409040E1F700C0000060E070E031
:1004A20080E090E40E94FE0461EE7AE784ED9FE32F
:1004B2000E9410060E9428082FEF80E792E0215048
:1004C20080409040E1F700C0000061EE7AE784EDE1
:1004D2009FE30E94B50660E070E080E89FE30E941F
:1004E200D20361E77DE38AE090E40E94B5060E94B0
:1004F20024082FEF80E792E0215080409040E1F7FE
:1005020000C0000060E070E088E091E40E94BB055A
:0E05120060E070E084EC91E40E94FE06089523
:1005200010C00E940B0858F00E94040840F029F403
:100530005F3F29F00C94190851110C9413080C9486
:1005400034080E94A80768F39923B1F3552391F367
:10055000951B550BBB27AA2762177307840738F032
:100560009F5F5F4F220F331F441FAA1FA9F335D08F
:100570000E2E3AF0E0E832D091505040E695001C43
:10058000CAF72BD0FE2F29D0660F771F881FBB1FFD
:10059000261737074807AB07B0E809F0BB0B802DDB
:1005A000BF01FF2793585F4F3AF09E3F510578F007
:1005B0000C9419080C9413085F3FE4F3983ED4F3AD
:1005C000869577956795B795F7959F5FC9F7880FDB
:1005D000911D9695879597F90895E1E0660F771F2D
:1005E000881FBB1F621773078407BA0720F0621BBE
:0E05F000730B840BBA0BEE1F88F7E09508958D
:1005FE000FC00E94040838F00E940B0820F09523CB
:10060E0011F00C9419080C94340811240C9413084E
:10061E000E94A80770F3959FC1F3950F50E0551FE8
:10062E00629FF001729FBB27F00DB11D639FAA2739
:10063E00F00DB11DAA1F649F6627B00DA11D661F88
:10064E00829F2227B00DA11D621F739FB00DA11DA9
:10065E00621F839FA00D611D221F749F3327A00D63
:10066E00611D231F849F600D211D822F762F6A2FFF
:10067E0011249F5750409AF0F1F088234AF0EE0F64
:10068E00FF1FBB1F661F771F881F91505040A9F791
:10069E009E3F510580F00C9419080C9413085F3F8F
:1006AE00E4F3983ED4F3869577956795B795F795CD
:1006BE00E7959F5FC1F7FE2B880F911D9695879545
:0406CE0097F90895FB
:1006D20060E070E080EB91E40E94B50660E070E0BB
:1006E20080E490E40E9410060E9428082FEF80E721
:1006F20092E0215080409040E1F700C0000060E0AD
:1007020070E080E490E40E949A042FEF80E792E088
:10071200215080409040E1F700C000000E94240870
:100722002FEF80E792E0215080409040E1F700C037
:10073200000064E17EEA87E090E40E94BB050E942B
:1007420028082FEF80E792E0215080409040E1F7A7
:1007520000C0000060E070E080E490E40E94FE04CB
:100762002FEF80E792E0215080409040E1F700C0F7
:1007720000000E9424082FEF80E792E02150804081
:100782009040E1F700C000006AE077ED83EA90E470
:100792000E94BB0560E070E080EB91E40E94FE06DF
:0207A2000895B8
:1007A400CF92DF92EF92FF92CF93DF9320E030E07D
:1007B4004AE754E40E94300820E030E040EF50E47F
:1007C4000E942C086B017C0188B1806288B988B1D1
:1007D400806188B985B1806285B985B18F7E85B91C
:1007E400C0E0D0E025C088B1886088B987EC90E08B
:1007F4000197F1F700C0000088B1877F88B987ECC2
:1008040090E00197F1F700C0000085B1886085B9D8
:1008140087EC90E00197F1F700C0000085B1877F75
:1008240085B987EC90E00197F1F700C000002196AC
:10083400BE010D2E000C880B990B0E9449079B01E9
:10084400AC01C701B6010E941F08181664F288B1F2
:100854008F7D88B985B18F7D85B9DF91CF91FF9068
:08086400EF90DF90CF900895A2
:10086C00CF92DF92EF92FF92CF93DF9320E030E0B4
:10087C004AE754E40E94300820E030E040EF50E4B6
:10088C000E942C086B017C0188B1806288B988B108
:10089C008F7E88B985B1806285B985B18F7E85B927
:1008AC00C0E0D0E025C088B1886088B987EC90E0C2
:1008BC000197F1F700C0000088B1877F88B987ECF9
:1008CC0090E00197F1F700C0000085B1886085B910
:1008DC0087EC90E00197F1F700C0000085B1877FAD
:1008EC0085B987EC90E00197F1F700C000002196E4
:1008FC00BE010D2E000C880B990B0E9449079B0121
:10090C00AC01C701B6010E941F08181664F288B129
:10091C008F7D88B985B18F7D85B9DF91CF91FF909F
:08092C00EF90DF90CF900895D9
:10093400CF92DF92EF92FF92CF93DF9320E030E0EB
:100944004AE754E40E94300820E030E040EF50E4ED
:100954000E942C086B017C0188B1806288B988B13F
:10096400806188B985B1806285B985B1806185B9B6
:10097400C0E0D0E025C088B1886088B987EC90E0F9
:100984000197F1F700C0000088B1877F88B987EC30
:1009940090E00197F1F700C0000085B1886085B947
:1009A40087EC90E00197F1F700C0000085B1877FE4
:1009B40085B987EC90E00197F1F700C0000021961B
:1009C400BE010D2E000C880B990B0E9449079B0158
:1009D400AC01C701B6010E941F08181664F288B161
:1009E4008F7D88B985B18F7D85B9DF91CF91FF90D7
:0809F400EF90DF90CF90089511
:1009FC00CF92DF92EF92FF92CF93DF9320E030E023
:100A0C004AE754E40E94300820E030E040EF50E424
:100A1C000E942C086B017C0188B1806288B988B176
:100A2C008F7E88B985B1806285B985B1806185B9C1
:100A3C00C0E0D0E025C088B1886088B987EC90E030
:100A4C000197F1F700C0000088B1877F88B987EC67
:100A5C0090E00197F1F700C0000085B1886085B97E
:100A6C0087EC90E00197F1F700C0000085B1877F1B
:100A7C0085B987EC90E00197F1F700C00000219652
:100A8C00BE010D2E000C880B990B0E9449079B018F
:100A9C00AC01C701B6010E941F08181664F288B198
:100AAC008F7D88B985B18F7D85B9DF91CF91FF900E
:080ABC00EF90DF90CF90089548
:100AC40060E070E080E290E40E94B50660E070E0CF
:100AD40080E490E40E9410060E9428088FE39CE9B9
:100AE4000197F1F700C000006DEC7CEC8CE49FE30F
:100AF4000E94B5066DEC7CEC8CE49FE30E949A04A2
:100B04006DEC7CEC8CE49FE30E9410066DEC7CECB5
:100B14008CE49FE30E94FE046DEC7CEC8CE49FE388
:100B24000E94FE066DEC7CEC8CE49FE30E9436048C
:100B34006DEC7CEC8CE49FE30E94BB056DEC7CECDB
:100B44008CE49FE30E94D2038FE39CE90197F1F7C1
:100B540000C000000E94240860E070E080E490E49B
:100B64000E94BB0560E070E080E290E40E94FE0613
:020B74000895E2
:100B7600CF92DF92EF92FF92CF93DF9320E030E0A7
:100B86004AE754E40E94300820E030E040EB50E4AD
:100B96000E942C086B017C014A9904C085B18F7DA7
:100BA60085B934C085B1806285B985B18F7E85B936
:100BB600C0E0D0E019C04A9904C085B18F7D85B9DF
:100BC60012C085B1886085B987EC90E00197F1F78E
:100BD60000C0000085B1877F85B987EC90E001975A
:100BE600F1F700C000002196BE010D2E000C880B07
:100BF600990B0E9449079B01AC01C701B6010E94EF
:100C06001F081816C4F285B18F7D85B9DF91CF9183
:0A0C1600FF90EF90DF90CF9008955B
:100C2000CF92DF92EF92FF92CF93DF9320E030E0FC
:100C30004AE754E40E94300820E030E040EB50E402
:100C40000E942C086B017C014B9904C085B18F7DFB
:100C500085B934C085B1806285B985B1806185B9B7
:100C6000C0E0D0E019C04B9904C085B18F7D85B933
:100C700012C085B1886085B987EC90E00197F1F7E3
:100C800000C0000085B1877F85B987EC90E00197AF
:100C9000F1F700C000002196BE010D2E000C880B5C
:100CA000990B0E9449079B01AC01C701B6010E9444
:100CB0001F081816C4F285B18F7D85B9DF91CF91D9
:0A0CC000FF90EF90DF90CF900895B1
:100CCA0060E070E080E691E40E94B50660E070E0C2
:100CDA0080E490E40E94100660E070E080E490E412
:100CEA000E94FE040E9428082FEF80E792E021501C
:100CFA0080409040E1F700C0000060E070E080E4CE
:100D0A0090E40E94D20360E070E080E490E40E94E4
:100D1A009A0466EF78E284E990E40E94FE062FEFD7
:100D2A0080E792E0215080409040E1F700C0000047
:100D3A000E9424082FEF80E792E0215080409040E3
:100D4A00E1F700C000006AE077ED83EA90E40E94D0
:100D5A00BB0563EC75EF8EE391E40E94FE060895ED
:100D6A00CF92DF92EF92FF92CF93DF9320E030E0B1
:100D7A004AE754E40E94300820E030E040EB50E4B7
:100D8A000E942C086B017C0188B1806288B988B105
:100D9A00806188B9C0E0D0E013C088B1886088B9A2
:100DAA0087EC90E00197F1F700C0000088B1877FD7
:100DBA0088B987EC90E00197F1F700C0000021960E
:100DCA00BE010D2E000C880B990B0E9449079B014E
:100DDA00AC01C701B6010E941F081816F4F288B1C7
:100DEA008F7D88B9DF91CF91FF90EF90DF90CF9000
:020DFA0008955A
:100DFC00CF92DF92EF92FF92CF93DF9320E030E01F
:100E0C004AE754E40E94300820E030E040EB50E424
:100E1C000E942C086B017C0188B1806288B988B172
:100E2C008F7E88B9C0E0D0E013C088B1886088B9E3
:100E3C0087EC90E00197F1F700C0000088B1877F44
:100E4C0088B987EC90E00197F1F700C0000021967B
:100E5C00BE010D2E000C880B990B0E9449079B01BB
:100E6C00AC01C701B6010E941F081816F4F288B134
:100E7C008F7D88B9DF91CF91FF90EF90DF90CF906D
:020E8C000895C7
:100E8E00E89409C097FB3EF4909580957095619516
:100E9E007F4F8F4F9F4F9923A9F0F92F96E9BB27CC
:100EAE009395F695879577956795B795F111F8CF48
:100EBE00FAF4BB0F11F460FF1BC06F5F7F4F8F4FB3
:100ECE009F4F16C0882311F096E911C0772321F0A9
:100EDE009EE8872F762F05C0662371F096E8862F41
:100EEE0070E060E02AF09A95660F771F881FDAF798
:0A0EFE00880F9695879597F90895DF
:100F0800990F0008550FAA0BE0E8FEEF1616170612
:100F1800E807F907C0F012161306E407F50798F07A
:100F2800621B730B840B950B39F40A2661F0232B93
:100F3800242B252B21F408950A2609F4A140A6950F
:080F48008FEF811D811D08954A
:100F500057FD9058440F551F59F05F3F71F047956A
:100F6000880F97FB991F61F09F3F79F0879508954F
:100F7000121613061406551FF2CF4695F1DF08C06E
:100F8000161617061806991FF1CF8695710561058B
:040F90000894089524
:100F94008FEF84B91AB887B98BB184608BB98BB1E0
:100FA40088608BB988B1816088B90E9462050E940B
:100FB40065060E9469030E9440000E94C90160E026
:0C0FC40070E080EA91E40E94BB05FFCFC2
:100FD000092E0394000C11F4882352F0BB0F40F447
:100FE000BF2B11F460FF04C06F5F7F4F8F4F9F4F87
:020FF000089562
:100FF200EC010E943C080E943B08CE010E943D0881
:06100200CE010E94390836
:0E10080000240A941616170618060906089505
:0E10160000240A941216130614060506089507
:0E102400E894BB2766277727CB0197F908953C
:0C10320097F99F6780E870E060E0089587
:0A103E000E94840708F48FEF089564
:0810480088B1816088B90895A8
:0810500088B18E7F88B9089574
:081058000E9490020C94E807CD
:081060000E94FF020C94E80756
:061068009FEF80EC0895EB
:04106E000C940000DE
:041072000E943E009A
:021076000895DB
:021078000895D9
:02107A000895D7
:00000001FF
