:020000020000FC
:0200000002C03C
:100004002CC0789408E00EBF0FEF0DBF08E610E097
:10001400D3D00BEF0AB95A9A21E02DBB33E03093C9
:10002400690007E004B92A9A2B9A2C9A2D9A60E069
:1000340083B184FDFDCF93B195FDFACF589A53B1A6
:1000440053FF01C0F5CF5898603089F000D061307B
:1000540051F000D0623049F0EBCF6395633001C0BA
:10006400189560E0089538D008956DD008955D9A8C
:10007400599A70E0289A2998B6D0B5D0289829982A
:10008400B2D073957530B1F759982A9A70E0289ACE
:100094002998A9D073957F30E1F7289829982A9850
:1000A4005B9A70E0289A29989ED073957530E1F791
:1000B4002898299870E097D073957330E1F72898C1
:1000C400299A70E090D073957530E1F75B985D984C
:1000D4005C9A89D05C9808955E9A599A70E0289A3F
:1000E400299881D080D07FD0289829987CD07BD043
:1000F40073957530A1F759982A9A70E0289A29982F
:1001040072D073957231E1F7289829982A985B9AEE
:1001140070E0289A299867D073957730E1F728988A
:10012400299870E060D073957530E1F72898299A82
:1001340070E059D073957730E1F75B985E985C9ADC
:1001440052D05C9808955F9A599A70E0289A299839
:100154004AD049D048D047D02898299844D043D091
:1001640042D07395753091F759982A9A70E0289A7D
:10017400299839D073957531E1F7289829982A98E8
:100184005B9A70E0289A29982ED073957930E1F71C
:100194002898299870E027D073957730E1F728984C
:1001A400299A70E020D073957930E1F75B985F98D5
:1001B4005C9A19D05C9808950093C4001093C5000C
:1001C40008E10093C10008951091C00015FFFCCF11
:1001D4000093C60000E008951091C00015FFFCCF05
:1001E4000091C60008952FEF3FEF45E54A95F1F7DA
:0C01F4003A95E1F72A95D1F70000089534
:00000001FF
