:100000000C943A000C946C030C9497030C944704E2
:100010000C9447040C94F0020C9447040C9447048D
:100020000C9447040C9447040C9447040C94470424
:100030000C9447040C9447040C9447040C94470414
:100040000C9447040C9447040C9447040C94470404
:100050000C9447040C9447040C9447040C944704F4
:100060000C9447040C9447040100010400089C010F
:1000700004010B8011241FBECFEFD8E0DEBFCDBF3F
:10008000E8E6F0E040E017C0B591A59135912591E3
:10009000059107FD0CC095918591EF01F92FE82F8F
:1000A00005900D92A217B307D9F7FE0104C01D9267
:1000B000A217B307E1F7E437F40731F70E945D02B6
:0800C0000C942704F894FFCF13
:1000C8003D3D3D3D3D3D3D3D3D3D3D3D3D3D3D3D58
:1000D8003D3D3D3D3D3D3D3D3D3D3D3D3D3D3D3D48
:1000E8003D3D3D3D3D3D0A00202020202020202090
:1000F80020202020204269656E76656E69646F73E2
:1001080020202020202020202020202020200A001D
:100118003D3D3D3D3D3D3D3D3D3D3D3D3D3D3D3D07
:100128003D3D3D3D3D3D3D3D3D3D3D3D3D3D3D3DF7
:100138003D3D3D3D3D3D0A0A0A0053656C656363DC
:10014800696F6E653A0A0A002D204D6F646F206151
:1001580075746F6D617469636F202831290A002DE9
:10016800204D6F646F206D616E75616C2028322997
:100178000A000A20506973746F6E2065746971757E
:100188006574612062616A616E646F2E2E2E0A00AA
:100198000A20506973746F6E20736F7061706120EC
:1001A800646572656368612E2E2E0A000A20416319
:1001B800746976616E646F20536F706170612E2E62
:1001C8002E0A000A20506973746F6E20736F706175
:1001D800706120697A717569657264612E2E2E0AC4
:1001E800000A20506973746F6E20657469717565B3
:1001F8007461206172726962612E2E2E0A000A20D3
:100208004465736163746976616E646F20536F70BF
:100218006170612E2E2E0A000A204D6F646F2061D6
:1002280075746F6D617469636F2073656C65636362
:10023800696F6E61646F2E2E2E20456E7669616E31
:10024800646F206120636F6E74726F6C0A000A20FD
:100258004D6F646F206D616E75616C2073656C65A0
:100268006363696F6E61646F2E2E2E20456E76690A
:10027800616E646F206120636F6E74726F6C0A0028
:100288008091C00088230CF013C1F4C085E40E945B
:100298003A0385E40E943A0385E40E943A036AE738
:1002A80071E080E00E9406042FEF3BE782E92150CD
:1002B80030408040E1F700C0000081E40E943A032A
:1002C80081E40E943A0381E40E943A0368E971E0FC
:1002D80080E00E9406049FEF2BE732E9915020400E
:1002E8003040E1F700C0000083E50E943A0383E54F
:1002F8000E943A0383E50E943A0364EB71E080E0D0
:100308000E9406048FEF9BE722E98150904020402D
:10031800E1F700C000008BE40E943A038BE40E94DE
:100328003A038BE40E943A036BEC71E080E00E9490
:1003380006043FEF8BE792E9315080409040E1F7A7
:1003480000C0000080E50E943A0380E50E943A035D
:1003580080E50E943A0369EE71E080E00E9406049D
:100368002FEF3BE782E9215030408040E1F700C0A1
:10037800000081E40E943A0381E40E943A0381E488
:100388000E943A0368E971E080E00E9406049FEF4A
:100398002BE732E9915020403040E1F700C00000DF
:1003A80084E50E943A0384E50E943A0384E50E94AA
:1003B8003A0366E072E080E00E9406048FEF9BE754
:1003C80022E9815090402040E1F700C000008BE412
:1003D8000E943A038BE40E943A038BE40E943A039A
:1003E8006BEC71E080E00E9406043FEF8BE792E936
:1003F800315080409040E1F700C0000088E50E943D
:100408003A0388E50E943A0388E50E943A038091FE
:10041800040190910501A0910601B0910701805453
:10042800924AAF4FBF4F8093040190930501A09368
:100438000601B09307012FEF33E284EF90E02150DB
:10044800304080409040D9F700C0000080910401FE
:1004580090910501A0910601B09107018059984E2D
:10046800AF4FBF4F8093040190930501A0930601FD
:10047800B093070140910401509105016091060174
:10048800709107018091000190910101A0910201F2
:10049800B0910301481759076A077B0708F4F6CE9D
:1004A80010920401109205011092060110920701A2
:0204B8000895A5
:1004BA000E94400487E690E00E941C040E94E70321
:1004CA008AB1837C8AB98BB18C638BB90E94C203CF
:1004DA0080930A018133E1F5F8942FEF81EE94E0DD
:1004EA00215080409040E1F700C000008AE40E9459
:1004FA003A032FEF81EE94E0215080409040E1F7DB
:10050A0000C000008AE40E943A038AE40E943A0387
:10051A008AE40E943A038AE40E943A038AE40E9427
:10052A003A038AE40E943A038AE40E943A0360E2A8
:10053A0072E080E00E9406042FEF83ED90E32150E1
:10054A0080409040E1F700C000000E944401BECF05
:10055A00823309F0BBCF10920901109208012FEFE4
:10056A0081EE94E0215080409040E1F700C0000005
:10057A008DE40E943A032FEF81EE94E021508040EF
:10058A009040E1F700C000008DE40E943A038DE438
:10059A000E943A038DE40E943A038DE40E943A03D2
:1005AA008DE40E943A038DE40E943A038DE40E948E
:1005BA003A03789466E572E080E00E94060480912E
:1005CA000801909109010197D1F71092090110923F
:0605DA000801F8947BCF3C
:1005E0001F920F920FB60F9211242F933F934F93A8
:1005F0005F936F937F938F939F93AF93BF93EF938B
:10060000FF934C9914C083E50E943A0383E50E944E
:100610003A0383E50E943A03F8942FEF8BE792E9BF
:10062000215080409040E1F700C0000078944D993F
:1006300010C088E50E943A0388E50E943A0388E5E5
:100640000E943A03F89481E090E09093090180932E
:100650000801FF91EF91BF91AF919F918F917F9191
:100660006F915F914F913F912F910F900FBE0F901F
:040670001F9018952A
:1006740095B19E7F95B9E3EAF1E03197F1F700C0B7
:10068400000020E030E019C0482F50E0022E02C0E4
:10069400559547950A94E2F740FF04C095B19160DF
:1006A40095B903C095B19E7F95B9E3EAF1E031971E
:1006B400F1F700C000002F5F3F4F2830310524F3CD
:1006C40085B1816085B983EA91E00197F1F700C0B3
:0406D4000000089585
:1006D8001F920F920FB60F9211242F933F934F93AF
:1006E8005F936F937F938F939F93AF93BF93EF9392
:1006F800FF9381E40E943A0381E40E943A0381E473
:100708000E943A03FF91EF91BF91AF919F918F9112
:100718007F916F915F914F913F912F910F900FBEF5
:060728000F901F901895D0
:10072E001F920F920FB60F9211242F933F934F9358
:10073E005F936F937F938F939F93AF93BF93EF933B
:10074E00FF9385E40E943A0385E40E943A0385E410
:10075E000E943A03FF91EF91BF91AF919F918F91BC
:10076E007F916F915F914F913F912F910F900FBE9F
:06077E000F901F9018957A
:1007840068EC70E080E00E94060460EF70E080E0B6
:100794000E94060468E171E080E00E94060462E4BD
:1007A40071E080E00E94060460E571E080E00E9450
:1007B400060467E671E080E00E9406040E943904A2
:0A07C4009FEC980F9230D0F70895D3
:1007CE00E9E6F0E08081826080838DB381608DBB2D
:1007DE008081886080838DB382608DBBA8E6B0E097
:1007EE008C9184608C93EDE6F0E080818061808353
:0E07FE008C9184608C9380818062808308954A
:10080C00CF92DF92EF926B01E82E06C09FEFC91AD0
:10081C00D90AE90A0E943204F6018491E7FC80812E
:0C082C008111F4CFEF90DF90CF90089581
:100838009093C5008093C40088E18093C10086E04E
:060848008093C200089538
:10084E00EC010E944C040E944B04CE010E944D0408
:06085E00CE010E944904D6
:0E0864009091C00095FFFCCF8093C6000895D0
:0E0872008091C0008823E4F78091C6000895AD
:0E08800084B1816084B984B18D7F84B90895FC
:04088E000C940000C6
:040892000E9462005E
:020896000895C3
:020898000895C1
:02089A000895BF
:04089C0030750000B3
:00000001FF
