:100000000C9434000C94B9000C94B9000C94B90011
:100010000C94B9000C94B9000C94B9000C94B9007C
:100020000C94B9000C94B9000C94B9000C94B9006C
:100030000C94B9000C94B9000C94B9000C94B9005C
:100040000C94B9000C94B9000C94B9000C94B9004C
:100050000C94B9000C94B9000C94B9000C94B9003C
:100060000C94B9000C94B90011241FBECFEFD8E056
:10007000DEBFCDBF0E9440000C94AE00F894FFCFCD
:100080000E947A0087E690E00E94A3000E948B0005
:100090008CEF8AB98FEF84B98BB18B7F8BB985E5F3
:1000A00091E00E9498002AEA36EE86E991E021501C
:1000B000304080409040D9F700008AEA92E00E94E8
:1000C00098002AEA36EE86E991E0215030408040DF
:1000D0009040D9F700008FEF93E00E9498002AEA41
:1000E00036EE86E991E02150304080409040D9F7CB
:0400F0000000D2CF6B
:1000F400ECE7F0E080818064808380818F7D808361
:10010400EAE7F0E080818660808380818068808374
:0201140008954C
:1001160082E88093800089E1809381008FEF93E0ED
:0A01260090938700809386000895EF
:10013000909389008093880085B1846085B985B1EA
:06014000877F85B90895D8
:100146009093C5008093C40088E18093C10086E047
:060156008093C200089531
:10015C00EC010E94BE000E94BD00CE010E94BF00B7
:06016C00CE010E94BB0061
:040172000C940000E9
:040176000E943E00A5
:02017A000895E6
:02017C000895E4
:02017E000895E2
:00000001FF
