:100000000C9434000C946E040C946E040C946E04E6
:100010000C946E040C946E040C946E040C946E0498
:100020000C946E040C946E040C946E040C946E0488
:100030000C946E040C946E040C946E040C946E0478
:100040000C946E040C946E040C946E040C946E0468
:100050000C946E040C946E040C946E040C946E0458
:100060000C946E040C946E0411241FBECFEFD8E0E4
:10007000DEBFCDBF0E9404030C944F04F894FFCF61
:100080002D2D2D2D2D4269656E76656E69646F206C
:10009000616C205069616E6F204D616769636F2DDF
:1000A0002D2D2D2D0A0043616E63696F6E657320DF
:1000B00070617261206573636F6765723A0A002A26
:1000C0004F7063696F6E2031203A204D6172636812
:1000D0006120496D70657269616C2064652053749C
:1000E000617220576172730A002A4F7063696F6EE4
:1000F0002032203A2054656D61207072696E636908
:1001000070616C206465204A757261737369632045
:100110005061726B0A002A4F7063696F6E20332042
:100120003A204D6F646F206C696272650A000A0A9A
:100130000A526570726F64756369656E646F204DF5
:10014000617263686120496D70657269616C2064D9
:1001500065205374617220576172732E2E2E0A0A25
:100160000A000A0A0A526570726F64756369656EE7
:10017000646F2054656D61207072696E636970618F
:100180006C206465204A75726173736963205061E5
:10019000726B2E2E2E0A0A0A000A0A0A456E747223
:1001A000616E646F2061204D6F646F206C696272B4
:0801B000652E2E2E0A0A0A003A
:1001B8000E94BF032FEF87E893E1215080409040D1
:1001C800E1F700C000000E9468042FEF81EE94E080
:1001D800215080409040E1F700C000000E940F04C9
:1001E8002FEF86E191E1215080409040E1F700C077
:1001F80000000E9468042FEF81EE94E021508040B7
:100208009040E1F700C000000E9423042FEF88EF20
:1002180095E1215080409040E1F700C000000E9425
:1002280068042FEF81EE94E0215080409040E1F780
:1002380000C000000E94FB032FEF86E191E12150EE
:1002480080409040E1F700C000000E9468042FEF52
:1002580081EE94E0215080409040E1F700C000001A
:100268000E94AB032FEF86E191E12150804090403E
:10027800E1F700C000000E9468042FEF81EE94E0CF
:10028800215080409040E1F700C000000E94BF0369
:100298002FEF88EF95E1215080409040E1F700C0B2
:1002A80000000E9468042FEF82E597E0215080400B
:1002B8009040E1F700C000000E94D3032FEF8BE4C9
:1002C8009DE1215080409040E1F700C000000E946D
:1002D80068042FEF82E597E0215080409040E1F7D5
:1002E80000C000000E94BF032FEF87E893E1215070
:1002F80080409040E1F700C000000E9468042FEFA2
:1003080081EE94E0215080409040E1F700C0000069
:100318000E940F042FEF86E191E121508040904028
:10032800E1F700C000000E9468042FEF81EE94E01E
:10033800215080409040E1F700C000000E94230453
:100348002FEF88EF95E1215080409040E1F700C001
:1003580000000E9468042FEF81EE94E02150804055
:100368009040E1F700C000000E94E7032FEF87E804
:1003780093E1215080409040E1F700C000000E94C6
:1003880068042FEF81EE94E0215080409040E1F71F
:1003980000C000000E94D3032FEF86E191E12150B5
:1003A80080409040E1F700C000000E9468042FEFF1
:1003B80081EE94E0215080409040E1F700C00000B9
:1003C8000E94BF032FEF88EF95E1215080409040B5
:1003D800E1F700C000000E9468042FEF82E597E073
:1003E800215080409040E1F700C000000E94AB031C
:1003F8002FEF8BE49DE1215080409040E1F700C051
:1004080000000E9468042FEF82E597E021508040A9
:0A0418009040E1F700C000000895D5
:100422000E94E7032FEF89E698E121508040904037
:10043200E1F700C000000E9468042FEF81EE94E013
:10044200215080409040E1F700C000000E94E70385
:100452002FEF89E698E1215080409040E1F700C0FB
:1004620000000E9468042FEF81EE94E0215080404A
:100472009040E1F700C000000E94E7032FEF89E6F9
:1004820098E1215080409040E1F700C000000E94B6
:1004920068042FEF81EE94E0215080409040E1F714
:1004A20000C000000E94BF032FEF86E191E12150BE
:1004B20080409040E1F700C000000E9468042FEFE6
:1004C20081EE94E0215080409040E1F700C00000AE
:1004D2000E94BF032FEF81EE94E0215080409040B4
:1004E200E1F700C000000E9468042FEF81EE94E063
:1004F200215080409040E1F700C000000E94BF03FD
:100502002FEF81EE94E0215080409040E1F700C04F
:1005120000000E9468042FEF81EE94E02150804099
:100522009040E1F700C000000E940F042FEF86E127
:1005320091E1215080409040E1F700C000000E940C
:1005420068042FEF81EE94E0215080409040E1F763
:1005520000C000000E94E7032FEF89E698E12150D6
:1005620080409040E1F700C000000E9468042FEF35
:1005720081EE94E0215080409040E1F700C00000FD
:100582000E94BF032FEF86E191E12150804090400D
:10059200E1F700C000000E9468042FEF81EE94E0B2
:1005A200215080409040E1F700C000000E940F04FB
:1005B2002FEF86E191E1215080409040E1F700C0A9
:1005C20000000E9468042FEF81EE94E021508040E9
:1005D2009040E1F700C000000E94E7032FEF89E698
:1005E20098E1215080409040E1F700C000000E9455
:1005F20068042FEF83EC99E0215080409040E1F7AE
:0606020000C00000089595
:1006080087E690E00E9444040E9437048AB1837010
:100618008AB984B18A7F84B984B1826084B98BB184
:100628008C6F8BB985B1856085B960E870E080E032
:100638000E94810366EA70E080E00E9481036FEB0C
:1006480070E080E00E94810369EE70E080E00E9423
:10065800810366E171E080E00E9481030E946104E9
:100668009FEC980F9330D0F7813341F46EE271E03C
:1006780080E00E9481030E941102D7CF823341F4A7
:1006880062E671E080E00E9481030E94DC00CDCF29
:10069800833359F669E971E080E00E9481034A9941
:1006A80003C00E949703FBCF4B9903C00E94AB0382
:1006B800F6CF4C9903C00E94BF03F1CF4D9903C0F8
:1006C8000E94D303ECCF4E9903C00E94E703E7CF03
:1006D8004F9903C00E94FB03E2CF189903C00E9400
:1006E8000F04DDCF1A9903C00E942304D8CFE0E895
:0A06F800F0E080818F778083D2CF7D
:10070200CF92DF92EF926B01E82E06C09FEFC91ADB
:10071200D90AE90A0E945A04F6018491E7FC808111
:0C0722008111F4CFEF90DF90CF9008958C
:10072E00E0E8F0E0808180688083E6E8F0E080ED2C
:10073E009EEE91838083808191819695879590938B
:08074E008900809388000895E2
:10075600E0E8F0E0808180688083E6E8F0E084ED00
:1007660094ED91838083808191819695879590936E
:080776008900809388000895BA
:10077E00E0E8F0E0808180688083E6E8F0E084E6DF
:10078E009DEB91838083808191819695879590933F
:08079E00890080938800089592
:1007A600E0E8F0E0808180688083E6E8F0E080E3BE
:1007B60093EB918380838081918196958795909321
:0807C60089008093880008956A
:1007CE00E0E8F0E0808180688083E6E8F0E088E091
:1007DE009FE99183808380819181969587959093EF
:0807EE00890080938800089542
:1007F600E0E8F0E0808180688083E6E8F0E08BE066
:100806009EE89183808380819181969587959093C8
:08081600890080938800089519
:10081E00E0E8F0E0808180688083E6E8F0E086E939
:10082E009EE79183808380819181969587959093A1
:08083E008900809388000895F1
:10084600E0E8F0E0808180688083E6E8F0E081E718
:1008560097E7918380838081918196958795909380
:080866008900809388000895C9
:10086E0082E88093800089E1809381008FEF9FEF73
:0A087E009093870080938600089590
:100888009093C5008093C40088E18093C10086E0FE
:060898008093C2000895E8
:10089E00EC010E9473040E947204CE010E94740443
:0608AE00CE010E9470045F
:0E08B4009091C00095FFFCCF8093C600089580
:0E08C2008091C0008823E4F78091C60008955D
:0C08D000E0E8F0E080818F7780830895DD
:0408DC000C94000078
:0408E0000E943E0034
:0208E400089575
:0208E600089573
:0208E800089571
:00000001FF
