:100000000C9437000C94A1020C94CC020C947C0349
:100010000C947C030C9425020C947C030C947C03BC
:100020000C947C030C947C030C947C030C947C0354
:100030000C947C030C947C030C947C030C947C0344
:100040000C947C030C947C030C947C030C947C0334
:100050000C947C030C947C030C947C030C947C0324
:100060000C947C030C947C03010001038000112498
:100070001FBECFEFD8E0DEBFCDBFE8E6F0E040E046
:1000800017C0B591A59135912591059107FD0CC03B
:1000900095918591EF01F92FE82F05900D92A21708
:1000A000B307D9F7FE0104C01D92A217B307E1F709
:1000B000ED36F40731F70E94A5010C945C03F89427
:0200C000FFCF70
:1000C2003D3D3D3D3D3D3D3D3D3D3D3D3D3D3D3D5E
:1000D2003D3D3D3D3D3D3D3D3D3D3D3D3D3D3D3D4E
:1000E2003D3D3D3D3D3D0A00202020202020202096
:1000F20020202020204269656E76656E69646F73E8
:1001020020202020202020202020202020200A0023
:100112003D3D3D3D3D3D3D3D3D3D3D3D3D3D3D3D0D
:100122003D3D3D3D3D3D3D3D3D3D3D3D3D3D3D3DFD
:100132003D3D3D3D3D3D0A0A0A0053656C656363E2
:10014200696F6E653A0A0A002D204D6F646F206157
:1001520075746F6D617469636F202831290A002DEF
:10016200204D6F646F206D616E75616C202832299D
:100172000A000A20506172616E646F20656C206D06
:100182006F746F722E2E2E0A000A20476972616EFA
:10019200646F206D6F746F7220656E2073656E746C
:1001A20069646F20686F726172696F2E2E2E0A0069
:1001B2000A20476972616E646F206D6F746F7220DE
:1001C200656E2073656E7469646F20616E74696810
:1001D2006F726172696F2E2E2E0A000A204D6F64B3
:1001E2006F206175746F6D617469636F2073656CE4
:1001F200656363696F6E61646F2E2E2E20456E7685
:1002020069616E646F206120636F6E74726F6C0A35
:10021200000A204D6F646F206D616E75616C2073F2
:10022200656C656363696F6E61646F2E2E2E204567
:100232006E7669616E646F206120636F6E74726F97
:030242006C0A0043
:100246008091C00088230CF07CC083E50E946F0279
:1002560083E50E946F0283E50E946F0264E771E006
:1002660080E00E943B032FEF83ED90E32150804016
:100276009040E1F700C0000088E40E946F0288E425
:100286000E946F0288E40E946F026BE871E080E0D2
:100296000E943B032FEF83E294EF21508040904071
:1002A600E1F700C0000083E50E946F0283E50E942B
:1002B6006F0283E50E946F0264E771E080E00E94AE
:1002C6003B032FEF83E294EF215080409040E1F70B
:1002D60000C0000081E40E946F0281E40E946F0268
:1002E60081E40E946F0262EB71E080E00E943B03B2
:1002F6002FEF83E294EF215080409040E1F700C059
:10030600000083E50E946F0283E50E946F0283E589
:100316000E946F0264E771E080E00E943B032FEFCA
:1003260083E294EF215080409040E1F700C0000046
:1003360088E50E946F0288E50E946F0288E50E94A8
:040346006F020895A5
:10034A000E94750387E690E00E9451030E941C03F5
:10035A008AB1837C8AB98BB18C638BB90E94F7020C
:10036A0080930201813399F5F8942FEF81EE94E09E
:10037A00215080409040E1F700C000008AE40E94CA
:10038A006F028AE40E946F028AE40E946F028AE482
:10039A000E946F028AE40E946F028AE40E946F023E
:1003AA008AE40E946F028AE40E946F026DED71E096
:1003BA0080E00E943B032FEF83ED90E321508040C1
:1003CA009040E1F700C000000E942301C7CF8233AA
:1003DA0029F610920101109200012FEF81EE94E0AC
:1003EA00215080409040E1F700C000008DE40E9457
:1003FA006F028DE40E946F028DE40E946F028DE409
:10040A000E946F028DE40E946F028DE40E946F02C7
:10041A008DE40E946F028DE40E946F02789463E17A
:10042A0072E080E00E943B038091000190910101FB
:10043A000197D1F71092010110920001F8948ECF22
:10044A001F920F920FB60F9211242F933F934F933F
:10045A005F936F937F938F939F93AF93BF93EF9322
:10046A00FF934C9914C083E50E946F0283E50E94B2
:10047A006F0283E50E946F02F8942FEF8BE792E9EF
:10048A00215080409040E1F700C0000078944D99D7
:10049A0010C088E50E946F0288E50E946F0288E515
:1004AA000E946F02F89481E090E09093010180939A
:1004BA000001FF91EF91BF91AF919F918F917F9131
:1004CA006F915F914F913F912F910F900FBE0F90B7
:0404DA001F901895C2
:1004DE0095B19E7F95B9E3EAF1E03197F1F700C04F
:1004EE00000020E030E019C0482F50E0022E02C07C
:1004FE00559547950A94E2F740FF04C095B1916077
:10050E0095B903C095B19E7F95B9E3EAF1E03197B5
:10051E00F1F700C000002F5F3F4F2830310524F364
:10052E0085B1816085B983EA91E00197F1F700C04A
:04053E00000008951C
:100542001F920F920FB60F9211242F933F934F9346
:100552005F936F937F938F939F93AF93BF93EF9329
:10056200FF9381E40E946F0281E40E946F0281E4A2
:100572000E946F02FF91EF91BF91AF919F918F9176
:100582007F916F915F914F913F912F910F900FBE8D
:060592000F901F90189568
:100598001F920F920FB60F9211242F933F934F93F0
:1005A8005F936F937F938F939F93AF93BF93EF93D3
:1005B800FF9388E40E946F0288E40E946F0288E437
:1005C8000E946F02FF91EF91BF91AF919F918F9120
:1005D8007F916F915F914F913F912F910F900FBE37
:0605E8000F901F90189512
:1005EE0062EC70E080E00E943B036AEE70E080E017
:1005FE000E943B0362E171E080E00E943B036CE3EA
:10060E0071E080E00E943B036AE471E080E00E94AA
:10061E003B0361E671E080E00E943B030E946E03A3
:0A062E009FEC980F9230D0F708956A
:10063800E9E6F0E08081826080838DB381608DBBC4
:100648008081886080838DB382608DBBA8E6B0E02E
:100658008C9184608C93EDE6F0E0808180618083EA
:0E0668008C9184608C938081806280830895E1
:10067600CF92DF92EF926B01E82E06C09FEFC91A68
:10068600D90AE90A0E946703F6018491E7FC808192
:0C0696008111F4CFEF90DF90CF90089519
:1006A2009093C5008093C40088E18093C10086E0E6
:0606B2008093C2000895D0
:1006B800EC010E9481030E948003CE010E94820304
:0606C800CE010E947E033A
:0E06CE009091C00095FFFCCF8093C600089568
:0E06DC008091C0008823E4F78091C600089545
:0E06EA0084B1816084B984B18D7F84B9089594
:0406F8000C9400005E
:0406FC000E945F00F9
:0207000008955A
:02070200089558
:02070400089556
:00000001FF
