:100000000C9434000C943D010C943D010C943D0182
:100010000C943D010C943D010C943D010C943D0168
:100020000C943D010C943D010C943D010C943D0158
:100030000C943D010C943D010C943D010C943D0148
:100040000C943D010C943D010C943D010C943D0138
:100050000C943D010C943D010C943D010C943D0128
:100060000C943D010C943D0111241FBECFEFD8E04C
:10007000DEBFCDBF0E9440000C942401F894FFCF56
:100080000E942F010E9418018AB18C618AB91999C6
:10009000FECF0E94F300C82F0E943601CA3459F5E2
:1000A0000E94F30022C0833549F49BB1937F9BB932
:1000B0009BB190619BB90E94360115C0813449F40F
:1000C0009BB1977E9BB99BB194609BB90E9436010E
:1000D0000AC0883441F49BB19B7E9BB99BB1986068
:1000E0009BB90E9436010E94F3008835E1F68BB17E
:1000F000837E8BB9CCCFCD3451F60E94F3006CC017
:100100000E94F300833531F0813421F0883411F0FE
:100110008835B1F78335A9F49BB1937F9BB99BB127
:1001200090619BB92FEF3BE792E92150304090401E
:10013000E1F700C000009BB19F7E9BB90E94360191
:1001400049C0813419F51FC09BB1977E9BB99BB103
:1001500094609BB90E9436010E94F300883599F49F
:100160008BB1837F8BB98BB180618BB92FEF3BE76C
:1001700082E9215030408040E1F700C000008BB19F
:100180008F7E8BB927C08335F9F624C0883411F5EA
:100190001FC09BB19B7E9BB99BB198609BB90E948D
:1001A00036010E94F300883599F48BB1837F8BB9B7
:1001B0008BB180618BB99FEF2BE732E991502040E2
:1001C0003040E1F700C000008BB18F7E8BB902C0D8
:1001D0008335F9F60E94F300883509F091CF8BB191
:0601E000837E8BB954CFB1
:1001E6001999FECF83EA91E00197F1F700C000006C
:1001F60020E030E080E013C0199B09C041E050E0E8
:10020600022E02C0440F551F0A94E2F7842BE3EA3C
:10021600F1E03197F1F700C000002F5F3F4F283023
:0A022600310554F3199BFECF089533
:100230001092C50087E68093C40088E18093C100D6
:0802400086E08093C2000895DE
:10024800EC010E9442010E944101CE010E9443013B
:06025800CE010E943F01EF
:0E025E0084B1816084B984B18D7F84B9089524
:0E026C009091C00095FFFCCF8093C6000895CE
:04027A000C940000E0
:04027E000E943E009C
:020282000895DD
:020284000895DB
:020286000895D9
:00000001FF
