:100000000C9434000C944A010C944A010C944A015B
:100010000C944A010C944A010C944A010C944A0134
:100020000C944A010C944A010C944A010C944A0124
:100030000C944A010C944A010C944A010C944A0114
:100040000C944A010C944A010C944A010C944A0104
:100050000C944A010C944A010C944A010C944A01F4
:100060000C944A010C944A0111241FBECFEFD8E032
:10007000DEBFCDBF0E9440000C943101F894FFCF49
:100080000E943C010E9425018AB18C618AB91999AC
:10009000FECF0E940001C82F0E944301CA34B9F567
:1000A0000E94000131C0833531F49BB198609BB947
:1000B0000E94430127C0813431F49BB190619BB908
:1000C0000E9443011FC0853431F49BB194609BB9F9
:1000D0000E94430117C0843531F49BB1977F9BB9CF
:1000E0000E9443010FC08B3431F49BB19F7E9BB9BA
:1000F0000E94430107C0803529F49BB19B7F9BB9C7
:100100000E9443010E940001883569F6C0CFCD34BA
:1001100009F0BDCF0E94000154C00E940001C82F09
:10012000833531F0813421F0853411F08835A9F719
:10013000C335B1F48BB188608BB98C2F0E94430119
:100140002FEF8BE792E9215080409040E1F700C00B
:1001500000008BB1877F8BB98C2F0E9443012FC089
:10016000C134B1F48BB180618BB98C2F0E944301F3
:100170002FEF8BE792E9215080409040E1F700C0DB
:1001800000008BB18F7E8BB98C2F0E94430117C06A
:10019000C534A9F48BB184608BB98C2F0E944301C4
:1001A0002FEF8BE792E9215080409040E1F700C0AB
:1001B00000008BB18B7F8BB98C2F0E9443010E9472
:1001C0000001883509F0A9CF8BB1877F8BB92FEF5C
:1001D00087EA91E6215080409040E1F700C000009E
:1001E0008BB18F7E8BB92FEF87EA91E6215080404B
:1001F0009040E1F700C000008BB18B7F8BB947CFF7
:100200001999FECF83EA91E00197F1F700C0000051
:1002100020E030E080E013C0199B09C041E050E0CD
:10022000022E02C0440F551F0A94E2F7842BE3EA22
:10023000F1E03197F1F700C000002F5F3F4F283009
:0A024000310554F3199BFECF089519
:10024A001092C50087E68093C40088E18093C100BC
:08025A0086E08093C2000895C4
:10026200EC010E944F010E944E01CE010E945001FA
:06027200CE010E944C01C8
:0E02780084B1816084B984B18D7F84B908950A
:0E0286009091C00095FFFCCF8093C6000895B4
:040294000C940000C6
:040298000E943E0082
:02029C000895C3
:02029E000895C1
:0202A0000895BF
:00000001FF
