:100000000C9437000C94C8000C94C8000C94C800E1
:100010000C94C8000C94C8000C94C8000C94C80040
:100020000C94C8000C94C8000C94C8000C94610097
:100030000C94C8000C94C8000C94C8000C94C80020
:100040000C94C8000C94C8000C94C8000C94C80010
:100050000C94C8000C94C8000C94C8000C94C80000
:100060000C94C8000C94C800010001028000112407
:100070001FBECFEFD8E0DEBFCDBFE8E6F0E040E046
:1000800017C0B591A59135912591059107FD0CC03B
:1000900095918591EF01F92FE82F05900D92A21708
:1000A000B307D9F7FE0104C01D92A217B307E1F709
:1000B000ED36F40731F70E94C3000C94B800F894B1
:0200C000FFCF70
:1000C2001F920F920FB60F9211242F933F938F938B
:1000D2009F9380910001909101019C012F5F3F4FFE
:1000E20030930101209300014D974E9720F48BB17C
:1000F200807E8BB90DC0215031092D31310520F49C
:100102008BB18F618BB904C0109201011092000172
:100112009F918F913F912F910F900FBE0F901F9043
:0201220018952E
:100124008AB18FEF8AB98BB18F618BB9E1E8F0E0C6
:1001340080818860808388E09DE390938900809328
:100144008800808185608083EFE6F0E080818260B2
:06015400808378940895F9
:10015A0083B7817F83BF83B7816083BF889583B765
:06016A008E7F83BF0895A3
:10017000EC010E94CD000E94CC00CE010E94CE0076
:06018000CE010E94CA003E
:0A0186000E9492000E94AD00FDCF20
:040190000C940000CB
:040194000E945F0066
:020198000895C8
:02019A000895C6
:02019C000895C4
:00000001FF
